{
  "contractName": "MetaDataFinder",
  "abi": [
    {
      "inputs": [
        {
          "internalType": "string",
          "name": "_name",
          "type": "string"
        }
      ],
      "stateMutability": "nonpayable",
      "type": "constructor"
    },
    {
      "anonymous": false,
      "inputs": [
        {
          "indexed": true,
          "internalType": "address",
          "name": "owner",
          "type": "address"
        },
        {
          "indexed": true,
          "internalType": "address",
          "name": "approved",
          "type": "address"
        },
        {
          "indexed": true,
          "internalType": "uint256",
          "name": "tokenId",
          "type": "uint256"
        }
      ],
      "name": "Approval",
      "type": "event"
    },
    {
      "anonymous": false,
      "inputs": [
        {
          "indexed": true,
          "internalType": "address",
          "name": "owner",
          "type": "address"
        },
        {
          "indexed": true,
          "internalType": "address",
          "name": "operator",
          "type": "address"
        },
        {
          "indexed": false,
          "internalType": "bool",
          "name": "approved",
          "type": "bool"
        }
      ],
      "name": "ApprovalForAll",
      "type": "event"
    },
    {
      "anonymous": false,
      "inputs": [
        {
          "indexed": true,
          "internalType": "address",
          "name": "from",
          "type": "address"
        },
        {
          "indexed": true,
          "internalType": "address",
          "name": "to",
          "type": "address"
        },
        {
          "indexed": true,
          "internalType": "uint256",
          "name": "tokenId",
          "type": "uint256"
        }
      ],
      "name": "Transfer",
      "type": "event"
    },
    {
      "inputs": [],
      "name": "URI",
      "outputs": [
        {
          "internalType": "string",
          "name": "",
          "type": "string"
        }
      ],
      "stateMutability": "view",
      "type": "function"
    },
    {
      "inputs": [
        {
          "internalType": "address",
          "name": "to",
          "type": "address"
        },
        {
          "internalType": "uint256",
          "name": "tokenId",
          "type": "uint256"
        }
      ],
      "name": "approve",
      "outputs": [],
      "stateMutability": "nonpayable",
      "type": "function"
    },
    {
      "inputs": [
        {
          "internalType": "address",
          "name": "owner",
          "type": "address"
        }
      ],
      "name": "balanceOf",
      "outputs": [
        {
          "internalType": "uint256",
          "name": "",
          "type": "uint256"
        }
      ],
      "stateMutability": "view",
      "type": "function"
    },
    {
      "inputs": [
        {
          "internalType": "uint256",
          "name": "tokenId",
          "type": "uint256"
        }
      ],
      "name": "getApproved",
      "outputs": [
        {
          "internalType": "address",
          "name": "",
          "type": "address"
        }
      ],
      "stateMutability": "view",
      "type": "function"
    },
    {
      "inputs": [
        {
          "internalType": "address",
          "name": "owner",
          "type": "address"
        },
        {
          "internalType": "address",
          "name": "operator",
          "type": "address"
        }
      ],
      "name": "isApprovedForAll",
      "outputs": [
        {
          "internalType": "bool",
          "name": "",
          "type": "bool"
        }
      ],
      "stateMutability": "view",
      "type": "function"
    },
    {
      "inputs": [],
      "name": "name",
      "outputs": [
        {
          "internalType": "string",
          "name": "",
          "type": "string"
        }
      ],
      "stateMutability": "view",
      "type": "function"
    },
    {
      "inputs": [
        {
          "internalType": "uint256",
          "name": "tokenId",
          "type": "uint256"
        }
      ],
      "name": "ownerOf",
      "outputs": [
        {
          "internalType": "address",
          "name": "",
          "type": "address"
        }
      ],
      "stateMutability": "view",
      "type": "function"
    },
    {
      "inputs": [
        {
          "internalType": "address",
          "name": "from",
          "type": "address"
        },
        {
          "internalType": "address",
          "name": "to",
          "type": "address"
        },
        {
          "internalType": "uint256",
          "name": "tokenId",
          "type": "uint256"
        }
      ],
      "name": "safeTransferFrom",
      "outputs": [],
      "stateMutability": "nonpayable",
      "type": "function"
    },
    {
      "inputs": [
        {
          "internalType": "address",
          "name": "from",
          "type": "address"
        },
        {
          "internalType": "address",
          "name": "to",
          "type": "address"
        },
        {
          "internalType": "uint256",
          "name": "tokenId",
          "type": "uint256"
        },
        {
          "internalType": "bytes",
          "name": "data",
          "type": "bytes"
        }
      ],
      "name": "safeTransferFrom",
      "outputs": [],
      "stateMutability": "nonpayable",
      "type": "function"
    },
    {
      "inputs": [
        {
          "internalType": "address",
          "name": "operator",
          "type": "address"
        },
        {
          "internalType": "bool",
          "name": "approved",
          "type": "bool"
        }
      ],
      "name": "setApprovalForAll",
      "outputs": [],
      "stateMutability": "nonpayable",
      "type": "function"
    },
    {
      "inputs": [
        {
          "internalType": "bytes4",
          "name": "interfaceId",
          "type": "bytes4"
        }
      ],
      "name": "supportsInterface",
      "outputs": [
        {
          "internalType": "bool",
          "name": "",
          "type": "bool"
        }
      ],
      "stateMutability": "view",
      "type": "function"
    },
    {
      "inputs": [],
      "name": "symbol",
      "outputs": [
        {
          "internalType": "string",
          "name": "",
          "type": "string"
        }
      ],
      "stateMutability": "view",
      "type": "function"
    },
    {
      "inputs": [
        {
          "internalType": "address",
          "name": "from",
          "type": "address"
        },
        {
          "internalType": "address",
          "name": "to",
          "type": "address"
        },
        {
          "internalType": "uint256",
          "name": "tokenId",
          "type": "uint256"
        }
      ],
      "name": "transferFrom",
      "outputs": [],
      "stateMutability": "nonpayable",
      "type": "function"
    },
    {
      "inputs": [
        {
          "internalType": "uint256",
          "name": "_tokenId",
          "type": "uint256"
        }
      ],
      "name": "tokenURI",
      "outputs": [
        {
          "internalType": "string",
          "name": "",
          "type": "string"
        }
      ],
      "stateMutability": "view",
      "type": "function"
    }
  ],
  "bytecode": "0x60806040523480156200001157600080fd5b506040516200234d3803806200234d8339818101604052810190620000379190620002f6565b806040518060400160405280600681526020017f41706f6c6c6f0000000000000000000000000000000000000000000000000000815250816000908051906020019062000086929190620000a9565b5080600190805190602001906200009f929190620000a9565b50505050620003ab565b828054620000b79062000376565b90600052602060002090601f016020900481019282620000db576000855562000127565b82601f10620000f657805160ff191683800117855562000127565b8280016001018555821562000127579182015b828111156200012657825182559160200191906001019062000109565b5b5090506200013691906200013a565b5090565b5b80821115620001555760008160009055506001016200013b565b5090565b6000604051905090565b600080fd5b600080fd5b600080fd5b600080fd5b6000601f19601f8301169050919050565b7f4e487b7100000000000000000000000000000000000000000000000000000000600052604160045260246000fd5b620001c28262000177565b810181811067ffffffffffffffff82111715620001e457620001e362000188565b5b80604052505050565b6000620001f962000159565b9050620002078282620001b7565b919050565b600067ffffffffffffffff8211156200022a576200022962000188565b5b620002358262000177565b9050602081019050919050565b60005b838110156200026257808201518184015260208101905062000245565b8381111562000272576000848401525b50505050565b60006200028f62000289846200020c565b620001ed565b905082815260208101848484011115620002ae57620002ad62000172565b5b620002bb84828562000242565b509392505050565b600082601f830112620002db57620002da6200016d565b5b8151620002ed84826020860162000278565b91505092915050565b6000602082840312156200030f576200030e62000163565b5b600082015167ffffffffffffffff81111562000330576200032f62000168565b5b6200033e84828501620002c3565b91505092915050565b7f4e487b7100000000000000000000000000000000000000000000000000000000600052602260045260246000fd5b600060028204905060018216806200038f57607f821691505b602082108103620003a557620003a462000347565b5b50919050565b611f9280620003bb6000396000f3fe608060405234801561001057600080fd5b50600436106100ea5760003560e01c80636352211e1161008c578063a22cb46511610066578063a22cb4651461025d578063b88d4fde14610279578063c87b56dd14610295578063e985e9c5146102c5576100ea565b80636352211e146101df57806370a082311461020f57806395d89b411461023f576100ea565b8063095ea7b3116100c8578063095ea7b31461016d5780631141d7de1461018957806323b872dd146101a757806342842e0e146101c3576100ea565b806301ffc9a7146100ef57806306fdde031461011f578063081812fc1461013d575b600080fd5b61010960048036038101906101049190611333565b6102f5565b604051610116919061137b565b60405180910390f35b6101276103d7565b604051610134919061142f565b60405180910390f35b61015760048036038101906101529190611487565b610469565b60405161016491906114f5565b60405180910390f35b6101876004803603810190610182919061153c565b6104af565b005b6101916105c6565b60405161019e919061142f565b60405180910390f35b6101c160048036038101906101bc919061157c565b610654565b005b6101dd60048036038101906101d8919061157c565b6106b4565b005b6101f960048036038101906101f49190611487565b6106d4565b60405161020691906114f5565b60405180910390f35b610229600480360381019061022491906115cf565b610785565b604051610236919061160b565b60405180910390f35b61024761083c565b604051610254919061142f565b60405180910390f35b61027760048036038101906102729190611652565b6108ce565b005b610293600480360381019061028e91906117c7565b6108e4565b005b6102af60048036038101906102aa9190611487565b610946565b6040516102bc919061142f565b60405180910390f35b6102df60048036038101906102da919061184a565b6109da565b6040516102ec919061137b565b60405180910390f35b60007f80ac58cd000000000000000000000000000000000000000000000000000000007bffffffffffffffffffffffffffffffffffffffffffffffffffffffff1916827bffffffffffffffffffffffffffffffffffffffffffffffffffffffff191614806103c057507f5b5e139f000000000000000000000000000000000000000000000000000000007bffffffffffffffffffffffffffffffffffffffffffffffffffffffff1916827bffffffffffffffffffffffffffffffffffffffffffffffffffffffff1916145b806103d057506103cf82610a6e565b5b9050919050565b6060600080546103e6906118b9565b80601f0160208091040260200160405190810160405280929190818152602001828054610412906118b9565b801561045f5780601f106104345761010080835404028352916020019161045f565b820191906000526020600020905b81548152906001019060200180831161044257829003601f168201915b5050505050905090565b600061047482610ad8565b6004600083815260200190815260200160002060009054906101000a900473ffffffffffffffffffffffffffffffffffffffff169050919050565b60006104ba826106d4565b90508073ffffffffffffffffffffffffffffffffffffffff168373ffffffffffffffffffffffffffffffffffffffff160361052a576040517f08c379a00000000000000000000000000000000000000000000000000000000081526004016105219061195c565b60405180910390fd5b8073ffffffffffffffffffffffffffffffffffffffff16610549610b23565b73ffffffffffffffffffffffffffffffffffffffff161480610578575061057781610572610b23565b6109da565b5b6105b7576040517f08c379a00000000000000000000000000000000000000000000000000000000081526004016105ae906119ee565b60405180910390fd5b6105c18383610b2b565b505050565b600680546105d3906118b9565b80601f01602080910402602001604051908101604052809291908181526020018280546105ff906118b9565b801561064c5780601f106106215761010080835404028352916020019161064c565b820191906000526020600020905b81548152906001019060200180831161062f57829003601f168201915b505050505081565b61066561065f610b23565b82610be4565b6106a4576040517f08c379a000000000000000000000000000000000000000000000000000000000815260040161069b90611a80565b60405180910390fd5b6106af838383610c79565b505050565b6106cf838383604051806020016040528060008152506108e4565b505050565b6000806002600084815260200190815260200160002060009054906101000a900473ffffffffffffffffffffffffffffffffffffffff169050600073ffffffffffffffffffffffffffffffffffffffff168173ffffffffffffffffffffffffffffffffffffffff160361077c576040517f08c379a000000000000000000000000000000000000000000000000000000000815260040161077390611aec565b60405180910390fd5b80915050919050565b60008073ffffffffffffffffffffffffffffffffffffffff168273ffffffffffffffffffffffffffffffffffffffff16036107f5576040517f08c379a00000000000000000000000000000000000000000000000000000000081526004016107ec90611b7e565b60405180910390fd5b600360008373ffffffffffffffffffffffffffffffffffffffff1673ffffffffffffffffffffffffffffffffffffffff168152602001908152602001600020549050919050565b60606001805461084b906118b9565b80601f0160208091040260200160405190810160405280929190818152602001828054610877906118b9565b80156108c45780601f10610899576101008083540402835291602001916108c4565b820191906000526020600020905b8154815290600101906020018083116108a757829003601f168201915b5050505050905090565b6108e06108d9610b23565b8383610edf565b5050565b6108f56108ef610b23565b83610be4565b610934576040517f08c379a000000000000000000000000000000000000000000000000000000000815260040161092b90611a80565b60405180910390fd5b6109408484848461104b565b50505050565b606060068054610955906118b9565b80601f0160208091040260200160405190810160405280929190818152602001828054610981906118b9565b80156109ce5780601f106109a3576101008083540402835291602001916109ce565b820191906000526020600020905b8154815290600101906020018083116109b157829003601f168201915b50505050509050919050565b6000600560008473ffffffffffffffffffffffffffffffffffffffff1673ffffffffffffffffffffffffffffffffffffffff16815260200190815260200160002060008373ffffffffffffffffffffffffffffffffffffffff1673ffffffffffffffffffffffffffffffffffffffff16815260200190815260200160002060009054906101000a900460ff16905092915050565b60007f01ffc9a7000000000000000000000000000000000000000000000000000000007bffffffffffffffffffffffffffffffffffffffffffffffffffffffff1916827bffffffffffffffffffffffffffffffffffffffffffffffffffffffff1916149050919050565b610ae1816110a7565b610b20576040517f08c379a0000000000000000000000000000000000000000000000000000000008152600401610b1790611aec565b60405180910390fd5b50565b600033905090565b816004600083815260200190815260200160002060006101000a81548173ffffffffffffffffffffffffffffffffffffffff021916908373ffffffffffffffffffffffffffffffffffffffff160217905550808273ffffffffffffffffffffffffffffffffffffffff16610b9e836106d4565b73ffffffffffffffffffffffffffffffffffffffff167f8c5be1e5ebec7d5bd14f71427d1e84f3dd0314c0f7b2291e5b200ac8c7c3b92560405160405180910390a45050565b600080610bf0836106d4565b90508073ffffffffffffffffffffffffffffffffffffffff168473ffffffffffffffffffffffffffffffffffffffff161480610c325750610c3181856109da565b5b80610c7057508373ffffffffffffffffffffffffffffffffffffffff16610c5884610469565b73ffffffffffffffffffffffffffffffffffffffff16145b91505092915050565b8273ffffffffffffffffffffffffffffffffffffffff16610c99826106d4565b73ffffffffffffffffffffffffffffffffffffffff1614610cef576040517f08c379a0000000000000000000000000000000000000000000000000000000008152600401610ce690611c10565b60405180910390fd5b600073ffffffffffffffffffffffffffffffffffffffff168273ffffffffffffffffffffffffffffffffffffffff1603610d5e576040517f08c379a0000000000000000000000000000000000000000000000000000000008152600401610d5590611ca2565b60405180910390fd5b610d69838383611113565b610d74600082610b2b565b6001600360008573ffffffffffffffffffffffffffffffffffffffff1673ffffffffffffffffffffffffffffffffffffffff1681526020019081526020016000206000828254610dc49190611cf1565b925050819055506001600360008473ffffffffffffffffffffffffffffffffffffffff1673ffffffffffffffffffffffffffffffffffffffff1681526020019081526020016000206000828254610e1b9190611d25565b92505081905550816002600083815260200190815260200160002060006101000a81548173ffffffffffffffffffffffffffffffffffffffff021916908373ffffffffffffffffffffffffffffffffffffffff160217905550808273ffffffffffffffffffffffffffffffffffffffff168473ffffffffffffffffffffffffffffffffffffffff167fddf252ad1be2c89b69c2b068fc378daa952ba7f163c4a11628f55a4df523b3ef60405160405180910390a4610eda838383611118565b505050565b8173ffffffffffffffffffffffffffffffffffffffff168373ffffffffffffffffffffffffffffffffffffffff1603610f4d576040517f08c379a0000000000000000000000000000000000000000000000000000000008152600401610f4490611dc7565b60405180910390fd5b80600560008573ffffffffffffffffffffffffffffffffffffffff1673ffffffffffffffffffffffffffffffffffffffff16815260200190815260200160002060008473ffffffffffffffffffffffffffffffffffffffff1673ffffffffffffffffffffffffffffffffffffffff16815260200190815260200160002060006101000a81548160ff0219169083151502179055508173ffffffffffffffffffffffffffffffffffffffff168373ffffffffffffffffffffffffffffffffffffffff167f17307eab39ab6107e8899845ad3d59bd9653f200f220920489ca2b5937696c318360405161103e919061137b565b60405180910390a3505050565b611056848484610c79565b6110628484848461111d565b6110a1576040517f08c379a000000000000000000000000000000000000000000000000000000000815260040161109890611e59565b60405180910390fd5b50505050565b60008073ffffffffffffffffffffffffffffffffffffffff166002600084815260200190815260200160002060009054906101000a900473ffffffffffffffffffffffffffffffffffffffff1673ffffffffffffffffffffffffffffffffffffffff1614159050919050565b505050565b505050565b600061113e8473ffffffffffffffffffffffffffffffffffffffff166112a4565b15611297578373ffffffffffffffffffffffffffffffffffffffff1663150b7a02611167610b23565b8786866040518563ffffffff1660e01b81526004016111899493929190611ece565b6020604051808303816000875af19250505080156111c557506040513d601f19601f820116820180604052508101906111c29190611f2f565b60015b611247573d80600081146111f5576040519150601f19603f3d011682016040523d82523d6000602084013e6111fa565b606091505b50600081510361123f576040517f08c379a000000000000000000000000000000000000000000000000000000000815260040161123690611e59565b60405180910390fd5b805181602001fd5b63150b7a0260e01b7bffffffffffffffffffffffffffffffffffffffffffffffffffffffff1916817bffffffffffffffffffffffffffffffffffffffffffffffffffffffff19161491505061129c565b600190505b949350505050565b6000808273ffffffffffffffffffffffffffffffffffffffff163b119050919050565b6000604051905090565b600080fd5b600080fd5b60007fffffffff0000000000000000000000000000000000000000000000000000000082169050919050565b611310816112db565b811461131b57600080fd5b50565b60008135905061132d81611307565b92915050565b600060208284031215611349576113486112d1565b5b60006113578482850161131e565b91505092915050565b60008115159050919050565b61137581611360565b82525050565b6000602082019050611390600083018461136c565b92915050565b600081519050919050565b600082825260208201905092915050565b60005b838110156113d05780820151818401526020810190506113b5565b838111156113df576000848401525b50505050565b6000601f19601f8301169050919050565b600061140182611396565b61140b81856113a1565b935061141b8185602086016113b2565b611424816113e5565b840191505092915050565b6000602082019050818103600083015261144981846113f6565b905092915050565b6000819050919050565b61146481611451565b811461146f57600080fd5b50565b6000813590506114818161145b565b92915050565b60006020828403121561149d5761149c6112d1565b5b60006114ab84828501611472565b91505092915050565b600073ffffffffffffffffffffffffffffffffffffffff82169050919050565b60006114df826114b4565b9050919050565b6114ef816114d4565b82525050565b600060208201905061150a60008301846114e6565b92915050565b611519816114d4565b811461152457600080fd5b50565b60008135905061153681611510565b92915050565b60008060408385031215611553576115526112d1565b5b600061156185828601611527565b925050602061157285828601611472565b9150509250929050565b600080600060608486031215611595576115946112d1565b5b60006115a386828701611527565b93505060206115b486828701611527565b92505060406115c586828701611472565b9150509250925092565b6000602082840312156115e5576115e46112d1565b5b60006115f384828501611527565b91505092915050565b61160581611451565b82525050565b600060208201905061162060008301846115fc565b92915050565b61162f81611360565b811461163a57600080fd5b50565b60008135905061164c81611626565b92915050565b60008060408385031215611669576116686112d1565b5b600061167785828601611527565b92505060206116888582860161163d565b9150509250929050565b600080fd5b600080fd5b7f4e487b7100000000000000000000000000000000000000000000000000000000600052604160045260246000fd5b6116d4826113e5565b810181811067ffffffffffffffff821117156116f3576116f261169c565b5b80604052505050565b60006117066112c7565b905061171282826116cb565b919050565b600067ffffffffffffffff8211156117325761173161169c565b5b61173b826113e5565b9050602081019050919050565b82818337600083830152505050565b600061176a61176584611717565b6116fc565b90508281526020810184848401111561178657611785611697565b5b611791848285611748565b509392505050565b600082601f8301126117ae576117ad611692565b5b81356117be848260208601611757565b91505092915050565b600080600080608085870312156117e1576117e06112d1565b5b60006117ef87828801611527565b945050602061180087828801611527565b935050604061181187828801611472565b925050606085013567ffffffffffffffff811115611832576118316112d6565b5b61183e87828801611799565b91505092959194509250565b60008060408385031215611861576118606112d1565b5b600061186f85828601611527565b925050602061188085828601611527565b9150509250929050565b7f4e487b7100000000000000000000000000000000000000000000000000000000600052602260045260246000fd5b600060028204905060018216806118d157607f821691505b6020821081036118e4576118e361188a565b5b50919050565b7f4552433732313a20617070726f76616c20746f2063757272656e74206f776e6560008201527f7200000000000000000000000000000000000000000000000000000000000000602082015250565b60006119466021836113a1565b9150611951826118ea565b604082019050919050565b6000602082019050818103600083015261197581611939565b9050919050565b7f4552433732313a20617070726f76652063616c6c6572206973206e6f7420746f60008201527f6b656e206f776e6572206e6f7220617070726f76656420666f7220616c6c0000602082015250565b60006119d8603e836113a1565b91506119e38261197c565b604082019050919050565b60006020820190508181036000830152611a07816119cb565b9050919050565b7f4552433732313a2063616c6c6572206973206e6f7420746f6b656e206f776e6560008201527f72206e6f7220617070726f766564000000000000000000000000000000000000602082015250565b6000611a6a602e836113a1565b9150611a7582611a0e565b604082019050919050565b60006020820190508181036000830152611a9981611a5d565b9050919050565b7f4552433732313a20696e76616c696420746f6b656e2049440000000000000000600082015250565b6000611ad66018836113a1565b9150611ae182611aa0565b602082019050919050565b60006020820190508181036000830152611b0581611ac9565b9050919050565b7f4552433732313a2061646472657373207a65726f206973206e6f74206120766160008201527f6c6964206f776e65720000000000000000000000000000000000000000000000602082015250565b6000611b686029836113a1565b9150611b7382611b0c565b604082019050919050565b60006020820190508181036000830152611b9781611b5b565b9050919050565b7f4552433732313a207472616e736665722066726f6d20696e636f72726563742060008201527f6f776e6572000000000000000000000000000000000000000000000000000000602082015250565b6000611bfa6025836113a1565b9150611c0582611b9e565b604082019050919050565b60006020820190508181036000830152611c2981611bed565b9050919050565b7f4552433732313a207472616e7366657220746f20746865207a65726f2061646460008201527f7265737300000000000000000000000000000000000000000000000000000000602082015250565b6000611c8c6024836113a1565b9150611c9782611c30565b604082019050919050565b60006020820190508181036000830152611cbb81611c7f565b9050919050565b7f4e487b7100000000000000000000000000000000000000000000000000000000600052601160045260246000fd5b6000611cfc82611451565b9150611d0783611451565b925082821015611d1a57611d19611cc2565b5b828203905092915050565b6000611d3082611451565b9150611d3b83611451565b9250827fffffffffffffffffffffffffffffffffffffffffffffffffffffffffffffffff03821115611d7057611d6f611cc2565b5b828201905092915050565b7f4552433732313a20617070726f766520746f2063616c6c657200000000000000600082015250565b6000611db16019836113a1565b9150611dbc82611d7b565b602082019050919050565b60006020820190508181036000830152611de081611da4565b9050919050565b7f4552433732313a207472616e7366657220746f206e6f6e20455243373231526560008201527f63656976657220696d706c656d656e7465720000000000000000000000000000602082015250565b6000611e436032836113a1565b9150611e4e82611de7565b604082019050919050565b60006020820190508181036000830152611e7281611e36565b9050919050565b600081519050919050565b600082825260208201905092915050565b6000611ea082611e79565b611eaa8185611e84565b9350611eba8185602086016113b2565b611ec3816113e5565b840191505092915050565b6000608082019050611ee360008301876114e6565b611ef060208301866114e6565b611efd60408301856115fc565b8181036060830152611f0f8184611e95565b905095945050505050565b600081519050611f2981611307565b92915050565b600060208284031215611f4557611f446112d1565b5b6000611f5384828501611f1a565b9150509291505056fea2646970667358221220d6e49310a4332cbfd462442f3a221b52573cc37170c5414fe5511872116cd89564736f6c634300080d0033",
  "immutableReferences": {},
  "source": "// SPDX-License-Identifier: GPL-3.0-or-later\npragma solidity ^0.8.11;\n\nimport \"@openzeppelin/contracts/token/ERC721/ERC721.sol\";\n\ncontract MetaDataFinder is ERC721 {\n\n    string public URI;\n\n    constructor(string memory _name )ERC721(_name,\"Apollo\"){}\n\n    function tokenURI(uint256 _tokenId) public view override returns (string memory){\n        return URI;\n    }\n}",
  "sourcePath": "/home/bmahesh/main/apollo/erc721-meta-data-fetch/contracts/MetaDataFinder.sol",
  "compiler": {
    "name": "solc",
    "version": "0.8.13+commit.abaa5c0e.Emscripten.clang"
  },
  "schemaVersion": "3.4.6",
  "updatedAt": "2022-08-21T14:55:39.555Z",
  "devdoc": {
    "kind": "dev",
    "methods": {
      "approve(address,uint256)": {
        "details": "See {IERC721-approve}."
      },
      "balanceOf(address)": {
        "details": "See {IERC721-balanceOf}."
      },
      "getApproved(uint256)": {
        "details": "See {IERC721-getApproved}."
      },
      "isApprovedForAll(address,address)": {
        "details": "See {IERC721-isApprovedForAll}."
      },
      "name()": {
        "details": "See {IERC721Metadata-name}."
      },
      "ownerOf(uint256)": {
        "details": "See {IERC721-ownerOf}."
      },
      "safeTransferFrom(address,address,uint256)": {
        "details": "See {IERC721-safeTransferFrom}."
      },
      "safeTransferFrom(address,address,uint256,bytes)": {
        "details": "See {IERC721-safeTransferFrom}."
      },
      "setApprovalForAll(address,bool)": {
        "details": "See {IERC721-setApprovalForAll}."
      },
      "supportsInterface(bytes4)": {
        "details": "See {IERC165-supportsInterface}."
      },
      "symbol()": {
        "details": "See {IERC721Metadata-symbol}."
      },
      "transferFrom(address,address,uint256)": {
        "details": "See {IERC721-transferFrom}."
      }
    },
    "version": 1
  },
  "userdoc": {
    "kind": "user",
    "methods": {},
    "version": 1
  }
}